{
  "_format": "hh-sol-artifact-1",
  "contractName": "ProveDataVerifier",
  "sourceName": "contracts/ProveDataVerifier.sol",
  "abi": [
    {
      "inputs": [
        {
          "internalType": "uint256[9]",
          "name": "input",
          "type": "uint256[9]"
        },
        {
          "internalType": "uint256[8]",
          "name": "_proof",
          "type": "uint256[8]"
        }
      ],
      "name": "verifyProof",
      "outputs": [
        {
          "internalType": "bool",
          "name": "",
          "type": "bool"
        }
      ],
      "stateMutability": "view",
      "type": "function"
    }
  ],
  "bytecode": "0x608060405234801561001057600080fd5b50611211806100206000396000f3fe608060405234801561001057600080fd5b506004361061002b5760003560e01c806381375dbb14610030575b600080fd5b61004361003e3660046110d2565b610057565b604051901515815260200160405180910390f35b6000610061610f5e565b6040805180820182528435815260208086013581830152908352815160808082018452868401358285019081526060808901359084015282528351808501855290870135815260a08701358184015281830152838201528151808301835260c0860135815260e0860135918101919091529082015260006100e0610561565b6040805180820190915260008082526020820152835151919250906000805160206111bc8339815191521161015c5760405162461bcd60e51b815260206004820152601760248201527f76657269666965722d61582d6774652d7072696d652d7100000000000000000060448201526064015b60405180910390fd5b8251602001516000805160206111bc833981519152116101be5760405162461bcd60e51b815260206004820152601760248201527f76657269666965722d61592d6774652d7072696d652d710000000000000000006044820152606401610153565b602083015151516000805160206111bc833981519152116102215760405162461bcd60e51b815260206004820152601860248201527f76657269666965722d6258302d6774652d7072696d652d7100000000000000006044820152606401610153565b6020838101510151516000805160206111bc833981519152116102865760405162461bcd60e51b815260206004820152601860248201527f76657269666965722d6259302d6774652d7072696d652d7100000000000000006044820152606401610153565b6020838101515101516000805160206111bc833981519152116102eb5760405162461bcd60e51b815260206004820152601860248201527f76657269666965722d6258312d6774652d7072696d652d7100000000000000006044820152606401610153565b60208381015181015101516000805160206111bc833981519152116103525760405162461bcd60e51b815260206004820152601860248201527f76657269666965722d6259312d6774652d7072696d652d7100000000000000006044820152606401610153565b6040830151516000805160206111bc833981519152116103b45760405162461bcd60e51b815260206004820152601760248201527f76657269666965722d63582d6774652d7072696d652d710000000000000000006044820152606401610153565b6000805160206111bc833981519152836040015160200151106104195760405162461bcd60e51b815260206004820152601760248201527f76657269666965722d63592d6774652d7072696d652d710000000000000000006044820152606401610153565b60005b600981101561050d577f30644e72e131a029b85045b68181585d2833e84879b9709143e1f593f000000187826009811061045857610458611117565b6020020135106104aa5760405162461bcd60e51b815260206004820152601f60248201527f76657269666965722d6774652d736e61726b2d7363616c61722d6669656c64006044820152606401610153565b6104f9826104f485608001518460016104c39190611143565b600a81106104d3576104d3611117565b60200201518a85600981106104ea576104ea611117565b6020020135610ac2565b610b58565b91508061050581611156565b91505061041c565b5060808201515161051f908290610b58565b90506105556105318460000151610bf1565b84602001518460000151856020015185876040015189604001518960600151610c87565b93505050505b92915050565b610569610faf565b6040805180820182527f2d4d9aa7e302d9df41749d5507949d05dbea33fbb16c643b22f599a2be6df2e281527f14bedd503c37ceb061d8ec60209fe345ce89830a19230301f076caff004d19266020808301919091529083528151608080820184527f0967032fcbf776d1afc985f88877f182d38480a653f2decaa9794cbc3bf3060c8285019081527f0e187847ad4c798374d0d6732bf501847dd68bc0e071241e0213bc7fc13db7ab606080850191909152908352845180860186527f304cfbd1e08a704a99f5e847d93f8c3caafddec46b7a0d379da69a4d112346a781527f1739c1b1a457a8c7313123d24d2f9192f896b7c63eea05a9d57f06547ad0cec8818601528385015285840192909252835180820185527f198e9393920d483a7260bfb731fb5d25f1aa493335a9e71297e485b7aef312c28186018181527f1800deef121f1e76426a00665e5c4479674322d4f75edadd46debd5cd992f6ed838601819052908352865180880188527f090689d0585ff075ec9e99ad690c3395bc4b313370b38ef355acdadcd122975b8082527f12c85ea5db8c6deb4aab71808dcb408fe3d1e7690c43d37b4ce6cc0166fa7daa8289018190528589019290925289890194909452875180860189528089019384528087019290925291815286518088018852928352828601919091528085019190915282860152835180850185527f082e511aeec23cf2461ac0063e864b3b45e53be842a2cbc3de68297da2a2e75f81527f234e2ae6c2c10f28b853c9c052ea45a330d8272ddeb78155a10413821fea6fc581850152818601805191909152845180860186527f0994d8265538b4236f2b4a126ec7c288639cc0bc2e116bec0244fa0b4b4befc881527f27b01db47dcddedcadeba5e2dda3cab3cc00b258ca1eedfcdb15bd1dee1a2b6c818601528151850152845180860186527f28ca521c7fa33867ef742d9c64afff43ad24476ae247ef22db6f533bc4eeb56481527f129aa0ace137bd51b89fbfb2fa84d63a678310a77bdc881f2bc1ea3c6d4f2fbd818601528151860152845180860186527f1af8dc9bdb0caaf1d2fc2ea6fab4b3bd13b469a7b19740a58deecb185edd17f981527f191f45711aaa0535eb7a3eec38f5902eb3551bf68327dddb5300a8925d1c4d0181860152815190930192909252835180850185527f25a477bdde211ab5dfb83644ad20074152a3de556e46792390203159989878be81527f2c84951b823c4e5bb03e664fbcc10af2dea6006982d7271514339cdbce4969e181850152825190910152825180840184527f12c9bd05431db83a862d48aea98a6095d9f700a11a7ac0ac678cb34f12c90f3b81527f1f11c9b18a07f7c14e1a46fdcc826e2c1132e3554666eeb54db21a673a903dcf81840152815160a00152825180840184527f10710117639ef472cc93c2f7e353ca5440b00a9b810c69184f5212efb9e3a52581527f0abdc755909cb7c7269efacabcedc20e6b3c2416e850be81ceed00236a94f5fe81840152815160c00152825180840184527f26f841cf2a6b488ba486e68ef016f9d2bd75ff8048b52aae01d61004a4af933281527f1ce218aa12bf827d679054d1e0f2e4b49d7f9faab9a1b9910a12ff615a50a3e381840152815160e00152825180840184527f18688be228e660f179b8f3115437dd13a460e1330a6f1ffdaea14acd3ce493c981527f24264cd8b51220105c4c4bb22f1f3a20fbf9aafff0c1d67fb46b430ccc084c31818401528151610100015282518084019093527f08a8bfc77aaa3cbf14b3c39326ca2063a34c582d19ce70ea0563c24e50e08a0183527f12ac7c5d2298a59f27c6d306b357271d9fc4e8d29426580c1f7bacefca3483679183019190915251610120015290565b6040805180820190915260008082526020820152610ade611000565b835181526020808501519082015260408101839052600060608360808460076107d05a03fa90508080610b0d57fe5b5080610b505760405162461bcd60e51b81526020600482015260126024820152711c185a5c9a5b99cb5b5d5b0b59985a5b195960721b6044820152606401610153565b505092915050565b6040805180820190915260008082526020820152610b7461101e565b8351815260208085015181830152835160408301528301516060808301919091526000908360c08460066107d05a03fa90508080610bae57fe5b5080610b505760405162461bcd60e51b81526020600482015260126024820152711c185a5c9a5b99cb5859190b59985a5b195960721b6044820152606401610153565b60408051808201909152600080825260208201528151158015610c1657506020820151155b15610c34575050604080518082019091526000808252602082015290565b6040518060400160405280836000015181526020016000805160206111bc8339815191528460200151610c67919061116f565b610c7f906000805160206111bc833981519152611191565b905292915050565b60408051608080820183528a825260208083018a90528284018890526060808401879052845192830185528b83528282018a9052828501889052820185905283516018808252610320820190955260009491859190839082016103008036833701905050905060005b6004811015610edb576000610d068260066111a4565b9050858260048110610d1a57610d1a611117565b60200201515183610d2c836000611143565b81518110610d3c57610d3c611117565b602002602001018181525050858260048110610d5a57610d5a611117565b60200201516020015183826001610d719190611143565b81518110610d8157610d81611117565b602002602001018181525050848260048110610d9f57610d9f611117565b6020020151515183610db2836002611143565b81518110610dc257610dc2611117565b602002602001018181525050848260048110610de057610de0611117565b6020020151516001602002015183610df9836003611143565b81518110610e0957610e09611117565b602002602001018181525050848260048110610e2757610e27611117565b602002015160200151600060028110610e4257610e42611117565b602002015183610e53836004611143565b81518110610e6357610e63611117565b602002602001018181525050848260048110610e8157610e81611117565b602002015160200151600160028110610e9c57610e9c611117565b602002015183610ead836005611143565b81518110610ebd57610ebd611117565b60209081029190910101525080610ed381611156565b915050610cf0565b50610ee461103c565b6000602082602086026020860160086107d05a03fa90508080610f0357fe5b5080610f495760405162461bcd60e51b81526020600482015260156024820152741c185a5c9a5b99cb5bdc18dbd9194b59985a5b1959605a1b6044820152606401610153565b505115159d9c50505050505050505050505050565b6040805160a081019091526000606082018181526080830191909152815260208101610f8861105a565b8152602001610faa604051806040016040528060008152602001600081525090565b905290565b6040805160e08101909152600060a0820181815260c0830191909152815260208101610fd961105a565b8152602001610fe661105a565b8152602001610ff361105a565b8152602001610faa61107a565b60405180606001604052806003906020820280368337509192915050565b60405180608001604052806004906020820280368337509192915050565b60405180602001604052806001906020820280368337509192915050565b604051806040016040528061106d6110b4565b8152602001610faa6110b4565b604051806101400160405280600a905b604080518082019091526000808252602082015281526020019060019003908161108a5790505090565b60405180604001604052806002906020820280368337509192915050565b6000806102208084860312156110e757600080fd5b6101208401858111156110f957600080fd5b84935085828601111561110b57600080fd5b80925050509250929050565b634e487b7160e01b600052603260045260246000fd5b634e487b7160e01b600052601160045260246000fd5b8082018082111561055b5761055b61112d565b6000600182016111685761116861112d565b5060010190565b60008261118c57634e487b7160e01b600052601260045260246000fd5b500690565b8181038181111561055b5761055b61112d565b808202811582820484141761055b5761055b61112d56fe30644e72e131a029b85045b68181585d97816a916871ca8d3c208c16d87cfd47a2646970667358221220310b39894dd1a785477a2edd9d810051f0f74e1ace70354f5ef364aa11d5104164736f6c63430008110033",
  "linkReferences": {},
  "deployedLinkReferences": {}
}