{
  "_format": "hh-sol-artifact-1",
  "contractName": "UnirepApp",
  "sourceName": "contracts/UnirepApp.sol",
  "abi": [
    {
      "inputs": [
        {
          "internalType": "contract Unirep",
          "name": "_unirep",
          "type": "address"
        },
        {
          "internalType": "uint256",
          "name": "_epochLength",
          "type": "uint256"
        },
        {
          "internalType": "contract IVerifier",
          "name": "_dataVerifier",
          "type": "address"
        }
      ],
      "stateMutability": "nonpayable",
      "type": "constructor"
    },
    {
      "inputs": [
        {
          "internalType": "uint256",
          "name": "epoch",
          "type": "uint256"
        }
      ],
      "name": "InvalidEpoch",
      "type": "error"
    },
    {
      "inputs": [],
      "name": "InvalidEpochKey",
      "type": "error"
    },
    {
      "inputs": [],
      "name": "InvalidProof",
      "type": "error"
    },
    {
      "inputs": [
        {
          "internalType": "uint256",
          "name": "stateTreeRoot",
          "type": "uint256"
        }
      ],
      "name": "InvalidStateTreeRoot",
      "type": "error"
    },
    {
      "anonymous": false,
      "inputs": [
        {
          "indexed": true,
          "internalType": "uint256",
          "name": "epochKey",
          "type": "uint256"
        },
        {
          "indexed": false,
          "internalType": "uint256[6]",
          "name": "data",
          "type": "uint256[6]"
        },
        {
          "indexed": false,
          "internalType": "uint256[8]",
          "name": "proof",
          "type": "uint256[8]"
        }
      ],
      "name": "SubmitDataProof",
      "type": "event"
    },
    {
      "inputs": [],
      "name": "FIELD_COUNT",
      "outputs": [
        {
          "internalType": "uint8",
          "name": "",
          "type": "uint8"
        }
      ],
      "stateMutability": "view",
      "type": "function"
    },
    {
      "inputs": [],
      "name": "SNARK_SCALAR_FIELD",
      "outputs": [
        {
          "internalType": "uint256",
          "name": "",
          "type": "uint256"
        }
      ],
      "stateMutability": "view",
      "type": "function"
    },
    {
      "inputs": [
        {
          "internalType": "uint256",
          "name": "control",
          "type": "uint256"
        }
      ],
      "name": "decodeDataProofControl",
      "outputs": [
        {
          "internalType": "uint256",
          "name": "attesterId",
          "type": "uint256"
        },
        {
          "internalType": "uint256",
          "name": "epoch",
          "type": "uint256"
        },
        {
          "internalType": "uint256",
          "name": "epochKey",
          "type": "uint256"
        }
      ],
      "stateMutability": "pure",
      "type": "function"
    },
    {
      "inputs": [
        {
          "internalType": "uint256",
          "name": "epochKey",
          "type": "uint256"
        },
        {
          "internalType": "uint256",
          "name": "targetEpoch",
          "type": "uint256"
        },
        {
          "internalType": "uint256",
          "name": "fieldIndex",
          "type": "uint256"
        },
        {
          "internalType": "uint256",
          "name": "val",
          "type": "uint256"
        }
      ],
      "name": "submitAttestation",
      "outputs": [],
      "stateMutability": "nonpayable",
      "type": "function"
    },
    {
      "inputs": [
        {
          "internalType": "uint256[]",
          "name": "publicSignals",
          "type": "uint256[]"
        },
        {
          "internalType": "uint256[8]",
          "name": "proof",
          "type": "uint256[8]"
        }
      ],
      "name": "submitDataProof",
      "outputs": [],
      "stateMutability": "nonpayable",
      "type": "function"
    },
    {
      "inputs": [
        {
          "internalType": "uint256",
          "name": "epochKey",
          "type": "uint256"
        },
        {
          "internalType": "uint256",
          "name": "targetEpoch",
          "type": "uint256"
        },
        {
          "internalType": "uint256[]",
          "name": "fieldIndices",
          "type": "uint256[]"
        },
        {
          "internalType": "uint256[]",
          "name": "vals",
          "type": "uint256[]"
        }
      ],
      "name": "submitManyAttestations",
      "outputs": [],
      "stateMutability": "nonpayable",
      "type": "function"
    },
    {
      "inputs": [],
      "name": "unirep",
      "outputs": [
        {
          "internalType": "contract Unirep",
          "name": "",
          "type": "address"
        }
      ],
      "stateMutability": "view",
      "type": "function"
    },
    {
      "inputs": [
        {
          "internalType": "uint256[]",
          "name": "publicSignals",
          "type": "uint256[]"
        },
        {
          "internalType": "uint256[8]",
          "name": "proof",
          "type": "uint256[8]"
        }
      ],
      "name": "userSignUp",
      "outputs": [],
      "stateMutability": "nonpayable",
      "type": "function"
    }
  ],
  "bytecode": "0x60a060405234801561001057600080fd5b50604051610cf7380380610cf783398101604081905261002f916100c8565b600080546001600160a01b0319166001600160a01b038516908117909155604051632e4ec57d60e11b815260048101849052635c9d8afa90602401600060405180830381600087803b15801561008457600080fd5b505af1158015610098573d6000803e3d6000fd5b505050506001600160a01b03166080525061010b9050565b6001600160a01b03811681146100c557600080fd5b50565b6000806000606084860312156100dd57600080fd5b83516100e8816100b0565b602085015160408601519194509250610100816100b0565b809150509250925092565b608051610bd161012660003960006102df0152610bd16000f3fe608060405234801561001057600080fd5b50600436106100885760003560e01c80637e6a60a91161005b5780637e6a60a9146101025780638c89cac214610115578063f345da881461012f578063f85ec78f1461017c57600080fd5b80630efbb9bc1461008d57806325c2cd12146100a2578063264dc5ea146100dc5780634144f051146100ef575b600080fd5b6100a061009b3660046107c4565b6101a7565b005b6100c97f30644e72e131a029b85045b68181585d2833e84879b9709143e1f593f000000181565b6040519081526020015b60405180910390f35b6100a06100ea3660046108fc565b6102c5565b6100a06100fd3660046108fc565b610679565b6100a06101103660046109b6565b6106e1565b61011d600681565b60405160ff90911681526020016100d3565b61016161013d3660046109e8565b60ff811691600882901c67ffffffffffffffff169160481c6001600160a01b031690565b604080519384526020840192909252908201526060016100d3565b60005461018f906001600160a01b031681565b6040516001600160a01b0390911681526020016100d3565b8281146101e95760405162461bcd60e51b815260206004820152600b60248201526a0c2e4e4dad2e6dac2e8c6d60ab1b60448201526064015b60405180910390fd5b60005b60ff81168411156102bc576000546001600160a01b031663a65a2e4a8888888860ff871681811061021f5761021f610a01565b9050602002013587878760ff1681811061023b5761023b610a01565b905060200201356040518563ffffffff1660e01b8152600401610277949392919093845260208401929092526040830152606082015260800190565b600060405180830381600087803b15801561029157600080fd5b505af11580156102a5573d6000803e3d6000fd5b5050505080806102b490610a2d565b9150506101ec565b50505050505050565b604051631c01245160e21b81526000906001600160a01b037f000000000000000000000000000000000000000000000000000000000000000016906370049144906103169086908690600401610a75565b602060405180830381865afa158015610333573d6000803e3d6000fd5b505050506040513d601f19601f820116820180604052508101906103579190610acb565b905080610377576040516309bde33960e01b815260040160405180910390fd5b60008360008151811061038c5761038c610a01565b602002602001015190507f30644e72e131a029b85045b68181585d2833e84879b9709143e1f593f000000181106103d657604051630885eeef60e21b815260040160405180910390fd5b6000805485518291829182916001600160a01b0316906354af684e908a90600290811061040557610405610a01565b60200260200101516040518263ffffffff1660e01b815260040161042b91815260200190565b608060405180830381865afa158015610448573d6000803e3d6000fd5b505050506040513d601f19601f8201168201806040525081019061046c9190610af4565b8b51939750919550935091506000908990600190811061048e5761048e610a01565b6020908102919091010151600054604051633577417360e11b81526001600160a01b0387811660048301526024820187905260448201849052929350911690636aee82e690606401602060405180830381865afa1580156104f3573d6000803e3d6000fd5b505050506040513d601f19601f820116820180604052508101906105179190610acb565b610537576040516378dc522f60e11b8152600481018290526024016101e0565b60005460405163983c9cdb60e01b81526001600160a01b0386811660048301529091169063983c9cdb90602401602060405180830381865afa158015610581573d6000803e3d6000fd5b505050506040513d601f19601f820116820180604052508101906105a59190610b2a565b8311156105c85760405163a225656d60e01b8152600481018490526024016101e0565b6105d061075a565b60005b600660ff82161015610632578a6105eb826003610b43565b60ff16815181106105fe576105fe610a01565b6020026020010151828260ff166006811061061b5761061b610a01565b60200201528061062a81610a2d565b9150506105d3565b50867ffd789a6aff1a90e06229e77855135381dfdb8f73a93e94a9bcab36092d1bd3e8828b604051610665929190610b62565b60405180910390a250505050505050505050565b600054604051634144f05160e01b81526001600160a01b0390911690634144f051906106ab9085908590600401610a75565b600060405180830381600087803b1580156106c557600080fd5b505af11580156106d9573d6000803e3d6000fd5b505050505050565b60005460405163532d172560e11b8152600481018690526024810185905260448101849052606481018390526001600160a01b039091169063a65a2e4a90608401600060405180830381600087803b15801561073c57600080fd5b505af1158015610750573d6000803e3d6000fd5b5050505050505050565b6040518060c001604052806006906020820280368337509192915050565b60008083601f84011261078a57600080fd5b50813567ffffffffffffffff8111156107a257600080fd5b6020830191508360208260051b85010111156107bd57600080fd5b9250929050565b600080600080600080608087890312156107dd57600080fd5b8635955060208701359450604087013567ffffffffffffffff8082111561080357600080fd5b61080f8a838b01610778565b9096509450606089013591508082111561082857600080fd5b5061083589828a01610778565b979a9699509497509295939492505050565b634e487b7160e01b600052604160045260246000fd5b604051601f8201601f1916810167ffffffffffffffff8111828210171561088657610886610847565b604052919050565b600082601f83011261089f57600080fd5b60405161010080820182811067ffffffffffffffff821117156108c4576108c4610847565b604052830181858211156108d757600080fd5b845b828110156108f15780358252602091820191016108d9565b509195945050505050565b600080610120838503121561091057600080fd5b823567ffffffffffffffff8082111561092857600080fd5b818501915085601f83011261093c57600080fd5b813560208282111561095057610950610847565b8160051b925061096181840161085d565b828152928401810192818101908985111561097b57600080fd5b948201945b8486101561099957853582529482019490820190610980565b96506109a990508888830161088e565b9450505050509250929050565b600080600080608085870312156109cc57600080fd5b5050823594602084013594506040840135936060013592509050565b6000602082840312156109fa57600080fd5b5035919050565b634e487b7160e01b600052603260045260246000fd5b634e487b7160e01b600052601160045260246000fd5b600060ff821660ff8103610a4357610a43610a17565b60010192915050565b8060005b6008811015610a6f578151845260209384019390910190600101610a50565b50505050565b6101208082528351908201819052600090610140830190602090818701845b82811015610ab057815185529383019390830190600101610a94565b505050819250610ac281850186610a4c565b50509392505050565b600060208284031215610add57600080fd5b81518015158114610aed57600080fd5b9392505050565b60008060008060808587031215610b0a57600080fd5b505082516020840151604085015160609095015191969095509092509050565b600060208284031215610b3c57600080fd5b5051919050565b60ff8181168382160190811115610b5c57610b5c610a17565b92915050565b6101c08101818460005b6006811015610b8b578151835260209283019290910190600101610b6c565b505050610aed60c0830184610a4c56fea264697066735822122001f73f00040ca363b22ef1902cfa8355ee6e933c3553c583243965b2a1ae7d5364736f6c63430008110033",
  "linkReferences": {},
  "deployedLinkReferences": {}
}